{
  "contractName": "Casino",
  "abi": [
    {
      "constant": false,
      "inputs": [],
      "name": "generateNumberWinner",
      "outputs": [],
      "payable": false,
      "stateMutability": "nonpayable",
      "type": "function"
    },
    {
      "constant": true,
      "inputs": [],
      "name": "numberOfBets",
      "outputs": [
        {
          "name": "",
          "type": "uint256"
        }
      ],
      "payable": false,
      "stateMutability": "view",
      "type": "function"
    },
    {
      "constant": true,
      "inputs": [
        {
          "name": "player",
          "type": "address"
        }
      ],
      "name": "checkPlayerExists",
      "outputs": [
        {
          "name": "",
          "type": "bool"
        }
      ],
      "payable": false,
      "stateMutability": "view",
      "type": "function"
    },
    {
      "constant": false,
      "inputs": [],
      "name": "kill",
      "outputs": [],
      "payable": false,
      "stateMutability": "nonpayable",
      "type": "function"
    },
    {
      "constant": false,
      "inputs": [
        {
          "name": "numberWinner",
          "type": "uint256"
        }
      ],
      "name": "distributePrizes",
      "outputs": [],
      "payable": false,
      "stateMutability": "nonpayable",
      "type": "function"
    },
    {
      "constant": false,
      "inputs": [
        {
          "name": "number",
          "type": "uint256"
        }
      ],
      "name": "bet",
      "outputs": [],
      "payable": true,
      "stateMutability": "payable",
      "type": "function"
    },
    {
      "constant": true,
      "inputs": [],
      "name": "minimumBet",
      "outputs": [
        {
          "name": "",
          "type": "uint256"
        }
      ],
      "payable": false,
      "stateMutability": "view",
      "type": "function"
    },
    {
      "constant": true,
      "inputs": [],
      "name": "maximumAmountsOfBets",
      "outputs": [
        {
          "name": "",
          "type": "uint256"
        }
      ],
      "payable": false,
      "stateMutability": "view",
      "type": "function"
    },
    {
      "constant": true,
      "inputs": [],
      "name": "totalBet",
      "outputs": [
        {
          "name": "",
          "type": "uint256"
        }
      ],
      "payable": false,
      "stateMutability": "view",
      "type": "function"
    },
    {
      "inputs": [
        {
          "name": "_minimumBet",
          "type": "uint256"
        }
      ],
      "payable": false,
      "stateMutability": "nonpayable",
      "type": "constructor"
    },
    {
      "payable": true,
      "stateMutability": "payable",
      "type": "fallback"
    }
  ],
  "bytecode": "0x606060405267016345785d8a0000600055600a600355341561002057600080fd5b6040516020806108a28339810160405280805190602001909190505033600660006101000a81548173ffffffffffffffffffffffffffffffffffffffff021916908373ffffffffffffffffffffffffffffffffffffffff16021790555060008114151561008f57806000819055505b506108038061009f6000396000f300606060405260043610610099576000357c0100000000000000000000000000000000000000000000000000000000900463ffffffff1680630a50e3611461009b5780632ca8c6d3146100b05780634081d916146100d957806341c0e1b51461012a5780636ca3fc3b1461013f5780637365870b14610162578063c38a8afd1461017a578063e9cec933146101a3578063fe5e1853146101cc575b005b34156100a657600080fd5b6100ae6101f5565b005b34156100bb57600080fd5b6100c3610215565b6040518082815260200191505060405180910390f35b34156100e457600080fd5b610110600480803573ffffffffffffffffffffffffffffffffffffffff1690602001909190505061021b565b604051808215151515815260200191505060405180910390f35b341561013557600080fd5b61013d6102bf565b005b341561014a57600080fd5b6101606004808035906020019091905050610352565b005b610178600480803590602001909190505061059b565b005b341561018557600080fd5b61018d610709565b6040518082815260200191505060405180910390f35b34156101ae57600080fd5b6101b661070f565b6040518082815260200191505060405180910390f35b34156101d757600080fd5b6101df610715565b6040518082815260200191505060405180910390f35b60006001600a4381151561020557fe5b0601905061021281610352565b50565b60025481565b600080600090505b6004805490508110156102b4578273ffffffffffffffffffffffffffffffffffffffff1660048281548110151561025657fe5b906000526020600020900160009054906101000a900473ffffffffffffffffffffffffffffffffffffffff1673ffffffffffffffffffffffffffffffffffffffff1614156102a757600191506102b9565b8080600101915050610223565b600091505b50919050565b600660009054906101000a900473ffffffffffffffffffffffffffffffffffffffff1673ffffffffffffffffffffffffffffffffffffffff163373ffffffffffffffffffffffffffffffffffffffff16141561035057600660009054906101000a900473ffffffffffffffffffffffffffffffffffffffff1673ffffffffffffffffffffffffffffffffffffffff16ff5b565b61035a61071b565b6000806000806000809450600093505b6004805490508410156104ac5760048481548110151561038657fe5b906000526020600020900160009054906101000a900473ffffffffffffffffffffffffffffffffffffffff16925086600560008573ffffffffffffffffffffffffffffffffffffffff1673ffffffffffffffffffffffffffffffffffffffff16815260200190815260200160002060010154141561044d5782868660648110151561040d57fe5b602002019073ffffffffffffffffffffffffffffffffffffffff16908173ffffffffffffffffffffffffffffffffffffffff168152505084806001019550505b600560008473ffffffffffffffffffffffffffffffffffffffff1673ffffffffffffffffffffffffffffffffffffffff16815260200190815260200160002060008082016000905560018201600090555050838060010194505061036a565b60646001548115156104ba57fe5b049150600090505b8481101561057257600073ffffffffffffffffffffffffffffffffffffffff1686826064811015156104f057fe5b602002015173ffffffffffffffffffffffffffffffffffffffff1614151561056557858160648110151561052057fe5b602002015173ffffffffffffffffffffffffffffffffffffffff166108fc839081150290604051600060405180830381858888f19350505050151561056457600080fd5b5b80806001019150506104c2565b6000600481610581919061075a565b506000600181905550600060028190555050505050505050565b6105a43361021b565b1515156105b057600080fd5b600181101580156105c25750600a8111155b15156105cd57600080fd5b60005434101515156105de57600080fd5b34600560003373ffffffffffffffffffffffffffffffffffffffff1673ffffffffffffffffffffffffffffffffffffffff1681526020019081526020016000206000018190555080600560003373ffffffffffffffffffffffffffffffffffffffff1673ffffffffffffffffffffffffffffffffffffffff168152602001908152602001600020600101819055506001600260008282540192505081905550600480548060010182816106919190610786565b9160005260206000209001600033909190916101000a81548173ffffffffffffffffffffffffffffffffffffffff021916908373ffffffffffffffffffffffffffffffffffffffff1602179055505034600160008282540192505081905550600354600254101515610706576107056101f5565b5b50565b60005481565b60035481565b60015481565b610c80604051908101604052806064905b600073ffffffffffffffffffffffffffffffffffffffff1681526020019060019003908161072c5790505090565b8154818355818115116107815781836000526020600020918201910161078091906107b2565b5b505050565b8154818355818115116107ad578183600052602060002091820191016107ac91906107b2565b5b505050565b6107d491905b808211156107d05760008160009055506001016107b8565b5090565b905600a165627a7a723058202937e0d047bf429fab37f4203d894ca87c74d4250dad4b62194df9e2fab6b7900029",
  "source": "pragma solidity ^0.4.11;\n\ncontract Casino {\n\n\n    uint public minimumBet = 100 finney; // Equal to 0.1 ether\n\n   // The total amount of Ether bet for this current game\n   uint public totalBet;\n\n   // The total number of bets the users have made\n   uint public numberOfBets;\n\n   // The maximum amount of bets can be made for each game\n   uint public maximumAmountsOfBets = 10;\n    address[] players;\n\n    struct Player {\n\n        uint amountBet;\n        uint numberSelected;\n    }\n\n\n    mapping(address => Player) playerInfo;\n\n\n    address owner; // Long string from metamask\n\n\n    function Casino(uint _minimumBet) public{  // Constructor : has the same name as the contract , used to set up\n        //contract owner\n\n        owner = msg.sender;\n        if(_minimumBet !=0) minimumBet = _minimumBet;\n\n        }\n\n        //To be for a number btw 1 & 10 both inclusive\n\n\n    function bet(uint number) payable public {\n\n        require(!checkPlayerExists(msg.sender) );\n        require(number >= 1 && number <= 10);\n        require(msg.value >= minimumBet);\n\n\n        playerInfo[msg.sender].amountBet = msg.value;\n        playerInfo[msg.sender].numberSelected = number;\n        numberOfBets += 1;\n        players.push(msg.sender);\n        totalBet += msg.value;\n\n        if(numberOfBets >= maximumAmountsOfBets) generateNumberWinner();\n\n\n        }\n\n\n\n    function checkPlayerExists(address player) public view returns(bool) {\n\n        for( uint i = 0 ; i < players.length; i++){\n            if(players[i] == player) return true;\n        }\n        return false;\n    }\n\n\n    /*\n    Generate Winner : Generates a number between 1 & 10\n    */\n\n    function generateNumberWinner() public{\n\n        uint numberGenerated = block.number % 10 + 1; // This isnt secure\n\n        distributePrizes(numberGenerated);\n    }\n\n\n    /*\n\n    Distribute Prizes : Sends the correspondng ether to each winner\n    depending on the total bets\n    */\n\n    function distributePrizes(uint numberWinner) public {\n\n        address[100] memory winners ; // We have to create a temporary in memory array with fixed size\n\n        uint count = 0; // This is the count for the array of winners\n\n        for(uint i = 0; i < players.length ; i++) {\n            address playerAddress = players[i];\n            if(playerInfo[playerAddress].numberSelected == numberWinner){\n                winners[count] = playerAddress;\n                count ++;\n            }\n            delete playerInfo[playerAddress]; // Delete all the players array\n\n\n        }\n\n\n\n        uint winnerEtherAmount = totalBet / winners.length; // How much each player gets\n\n        for(uint j = 0; j < count; j++) {\n\n            if(winners[j] !=address(0)) // Check the address in the fixed array is not empty\n            winners[j].transfer(winnerEtherAmount);\n        }\n\n        players.length = 0; //Delete all the players array\n        totalBet = 0;\n        numberOfBets = 0;\n\n    }\n\n    /*\n    Annonymous Fallback function: In case someone sends ether to the\n    contract so it doesnt get lost\n    */\n    function() payable private{}\n\n/*\nKill function: Used to destroy contract whenever we want. Only owner\nhas the ability to kill the contract\n*/\n\n    function kill() public{\n\n        if(msg.sender == owner)\n            selfdestruct(owner);\n    }\n}\n",
  "sourcePath": "/Users/benjaminchen/Downloads/casino-ethereum/contracts/Casino.sol",
  "compiler": {
    "name": "solc",
    "version": "0.4.18+commit.9cf6e910.Emscripten.clang"
  },
  "schemaVersion": "1.0.1",
  "updatedAt": "2018-01-22T04:57:53.042Z"
}